:020000040800F2
:1000000000000220B9450008050B0008070B000896
:10001000090B00080B0B00080D0B00080000000086
:10002000000000000000000000000000213C00086B
:100030000F0B000800000000C13C0008110B000875
:100040000946000809460008094600080946000854
:100050000946000809460008094600080946000844
:100060000946000809460008094600080946000834
:100070000946000809460008094600080946000824
:10008000290B0008390B000809460008094600083A
:100090000946000809460008094600080946000804
:1000A00009460008094600080946000809460008F4
:1000B00009460008094600080946000809460008E4
:1000C00009460008094600080946000809460008D4
:1000D00009460008490B00080946000809460008BF
:1000E00009460008094600080946000809460008B4
:1000F00009460008094600080946000809460008A4
:100100000946000809460008094600080946000893
:100110000946000809460008094600080946000883
:100120000946000809460008590B0008094600085E
:100130000946000800000000000000000946000811
:100140000946000809460008094600080946000853
:100150000946000809460008690B0008094600081E
:100160000946000809460008094600080946000833
:1001700009460008094600080000000000000000D1
:080180000946000809460008C9
:1001900010B5054C237833B9044B13B10448AFF3C1
:1001A00000800123237010BDE0000020000000004B
:1001B00018E2000808B5034B1BB103490348AFF32D
:1001C000008008BD00000000E400002018E20008E4
:1001D00001F0FF01102A2BDB10F0070F08D010F8F8
:1001E000013B013A8B422DD010F0070F42B3F6D1FC
:1001F000F0B441EA012141EA014122F007047FF015
:1002000000070023F0E80256083C85EA010586EA6B
:10021000010685FA47F5A3FA87F586FA47F6A5FAA7
:1002200087F68EB9EED1F0BC01F0FF0102F00702B3
:1002300032B110F8013B013A83EA010313B1F8D15E
:100240000020704701387047002D06BF354603383F
:10025000073815F0010F07D1013015F4807F02BF78
:10026000013015F4C03F0130F0BC0138704700BFC9
:100270007BB972B90029BEBF00204FF0004106E0F3
:1002800008BF00281CBF6FF000414FF0FF3000F0A6
:10029000B9B9ADF1080C6DE904CE002909DB002BDA
:1002A0001ADB00F04DF8DDF804E0DDE9022304B0CC
:1002B0007047404261EB4101002B1BDB00F040F82E
:1002C000DDF804E0DDE9022304B0404261EB4101C6
:1002D000524263EB43037047524263EB430300F027
:1002E0002FF8DDF804E0DDE9022304B0404261EBC1
:1002F00041017047524263EB430300F021F8DDF8FF
:1003000004E0DDE9022304B0524263EB430370478B
:1003100053B94AB9002908BF00281CBF4FF0FF316C
:100320004FF0FF3000F06EB9ADF1080C6DE904CE6E
:1003300000F006F8DDF804E0DDE9022304B07047C0
:100340002DE9F047089D04468C46002B40F0838041
:100350008A42174647D9B2FA82F242B1C2F120006E
:1003600024FA00F09140974040EA010C94404FEA93
:100370001748230CBCFBF8F61FFA87FE08FB16C1D2
:1003800043EA014306FB0EF1994209D9FB1806F135
:10039000FF3080F01981994240F21681023E3B44C1
:1003A0005B1AA4B2B3FBF8F008FB103344EA034431
:1003B00000FB0EFEA64509D93C1900F1FF3380F081
:1003C0000581A64540F2028102383C4440EA0640DD
:1003D000A4EB0E0400261DB1D4400023C5E9004360
:1003E0003146BDE8F08702B9FFDEB2FA82F2002A98
:1003F00050D1CB1B4FEA174E1FFA87F80126B3FBEB
:10040000FEFC210C0EFB1C3341EA034108FB0CF3FC
:100410008B4207D979180CF1FF3002D28B4200F2DF
:10042000E9808446C91AA3B2B1FBFEF00EFB10119D
:1004300043EA014408FB00F8A04507D93C1900F144
:10044000FF3302D2A04500F2D9801846A4EB08047D
:1004500040EA0C40BFE78B4209D9002D00F0B18083
:100460000026C5E9000130463146BDE8F087B3FA01
:1004700083F6002E4AD18B4202D3824200F2B8802A
:10048000841A61EB030101208C46002DA8D0C5E938
:10049000004CA5E7C2F1200320FA03F6974001FAC9
:1004A00002F04FEA174ED9403043030CB1FBFEF681
:1004B0001FFA87F80EFB161143EA014306FB08F109
:1004C000994204FA02F409D9FB1806F1FF3C80F0C6
:1004D0008D80994240F28A80023E3B445B1A81B291
:1004E000B3FBFEF00EFB103341EA034100FB08F3BF
:1004F0008B4207D9791800F1FF3C73D28B4271D936
:1005000002383944CB1A40EA064678E7C6F1200C97
:1005100003FA06F422FA0CF31C4320FA0CF701FA52
:1005200006F34FEA144E21FA0CF11F433B0CB1FBCA
:10053000FEF91FFA84F80EFB191143EA014109FB89
:1005400008FA8A4502FA06F200FA06F308D9611899
:1005500009F1FF3048D28A4546D9A9F10209214460
:10056000A1EB0A01BFB2B1FBFEF00EFB101147EA8E
:10057000014700FB08F8B84507D9E71900F1FF313A
:100580002ED2B8452CD90238274440EA0940A7EBBF
:100590000807A0FB02894F45C64649461AD317D023
:1005A0005DB1B3EB0E0267EB010707FA0CFCF240FA
:1005B0004CEA0202F740C5E9002700263146BDE8B3
:1005C000F0872E4628460BE70646E9E61846FDE684
:1005D0004345E5D2B8EB020E69EB04010138DFE7D1
:1005E0000846D2E760468DE78146B9E7664675E77B
:1005F00030464AE7ACF1020C394413E702383C4478
:1006000024E700BF704700BF10F8012B11F8013B31
:10061000012A28BF9A42F7D0D01A7047034613F830
:10062000012B002AFBD1181A0138704770B50C460F
:1006300016460025B54207DAAFF30080214601F8DF
:10064000010B01350C46F5E7304670BD70B50C4620
:1006500016460025B54205DA14F8010BAFF3008009
:100660000135F7E7304670BD08B503460D4A1268FC
:100670005AB10C4A106803440B4A11780B4A521ABB
:10068000934206D8074A136008BD064A084911601C
:10069000EFE700BE03F0BAFF0C2303604FF0FF301A
:1006A000F2E700BF0001002000040000000002206B
:1006B000F8DB00204FF0FF3070474FF400534B60E1
:1006C00000207047012070470020704772B6FEE797
:1006D00000B595B03022002108A803F0CFFF002319
:1006E000039304930593069307930193204A116C97
:1006F00041F080511164126C02F080520192019A13
:1007000002931C4B1A6842F480421A601B6803F47F
:1007100080430293029B012308934FF48033099393
:1007200002220E924FF480030F9304231093A8210A
:1007300011911292139308A800F040FA98B90F2370
:10074000039302230493002305934FF4A0530693CD
:100750004FF480530793052103A800F091FC20B9C2
:1007600015B05DF804FBFFF7B1FFFFF7AFFF00BF67
:10077000003802400070004008B501F037F9FFF77B
:10078000A7FF00F00DF803F0B5FB00F0A3F800F0B0
:10079000BBF803F0EBFB00F08DF803F0F9FBFEE78C
:1007A00082B0002100910B4B1A6B42F080021A6359
:1007B0001A6B02F080020092009A01911A6B42F0CB
:1007C00001021A631B6B03F001030193019B02B04A
:1007D000704700BF0038024030B5ABB0274B0193E3
:1007E000274B0093274B284A2849012005F026FB78
:1007F00025A805F0F3F8264B2593264B2693264B88
:100800002793264B289325A805F0F6F8F8B102A8FF
:1008100005F012F90BAD02AC0FCC0FC523682B60AD
:100820000BAB0022114610A805F010F810AB1C4AC3
:100830001C4909A805F05AF805F040FF02461A4B7A
:1008400009A924A805F08EF8002323930AE09E212D
:10085000164803F01BFFDAE7239B013323930A209A
:1008600003F010FC002223A924A804F0CBFF0028E9
:10087000F2D0BC210E4803F009FFEDE74145000826
:1008800003450008F5440008DD4400089491002069
:100890006D43000891430008B1430008F14300088C
:1008A00038E7000864E2000870E200083CE2000853
:1008B00084E2000808B5044A0021044803F084FBE0
:1008C000034B186008BD00BFACE20008D907000860
:1008D000CC8F002008B50A480A4B03604FF4E1337F
:1008E000436000238360C36003610C224261836123
:1008F000C36101F0A3F900B908BDFFF7E7FEFBE70C
:10090000509100200010014008B50A480A4B0360CE
:100910004FF4E133436000238360C36003610C2222
:1009200042618361C36101F089F900B908BDFFF735
:10093000CDFEFBE7949100200044004030B58BB021
:1009400004460023059306930793089309930368CD
:10095000604A934204D0604A934262D00BB030BDEB
:10096000002501955D4B5A6C42F010025A645A6C96
:1009700002F010020192019A02951A6B42F00102F4
:100980001A631B6B03F001030293029B4FF4C063D5
:1009900005930223069307950323089307230993DE
:1009A00005A94F4800F042FC4E484F4B03604FF002
:1009B000006343608560C5604FF4806303614561F7
:1009C0008561C5610562456200F09AFD18BB454B23
:1009D000A3639C634548464B03604FF0006343604C
:1009E000402383600023C3604FF48062026143614F
:1009F0008361C3610362436200F082FD70B93B4BC7
:100A000063639C6300220521252000F071FF2520EF
:100A100000F0A2FFA2E7FFF759FED8E7FFF756FE66
:100A2000EDE7002503952D4B1A6C42F400321A6451
:100A30001A6C02F400320392039A04951A6B42F086
:100A400001021A631B6B03F001030493049B0C2344
:100A5000059302230693079503230893072309931D
:100A600005A91F4800F0E2FB2248234B03604FF02A
:100A7000006343608560C5604FF480630361456136
:100A80008561C5610562456200F03AFDD8B9194B30
:100A9000A3639C6319481A4B03604FF000634360E3
:100AA000402383600023C3604FF48062026143618E
:100AB0008361C3610362436200F022FD30B90F4BD2
:100AC00063639C634AE7FFF701FEE0E7FFF7FEFD83
:100AD000F5E700BF0010014000440040003802402C
:100AE00000000240909000204064024030900020BE
:100AF000B8640240D08F002088600240F09000204F
:100B0000A0600240FEE7FEE7FEE7FEE7FEE7704773
:100B100008B500F085FF02F08DFC012800D108BD6A
:100B200003F000F9FBE7000008B5024800F0E0FD23
:100B300008BD00BFD08F002008B5024800F0D8FDE6
:100B400008BD00BFF090002008B5024801F01AFA75
:100B500008BD00BF5091002008B5024800F0C8FD54
:100B600008BD00BF9090002008B5024800F0C0FD0D
:100B700008BD00BF3090002000B583B00022009275
:100B80000D4B596C41F480415964596C01F480411A
:100B9000009100990192196C41F0805119641B6C0D
:100BA00003F080530193019B0F216FF0010000F0CF
:100BB0009FFE03B05DF804FB00380240002800F0FF
:100BC000DF8170B582B00446036813F0010F3BD09B
:100BD000A64B9B6803F00C03042B2CD0A34B9B6803
:100BE00003F00C03082B21D06368B3F5803F4FD08E
:100BF000B3F5A02F52D09D4B1A6822F480321A60B0
:100C00001A6822F480221A606368002B50D000F02A
:100C100013FF0546954B1B6813F4003F14D100F0F9
:100C20000BFF401B6428F5D90320B0E18F4B5B68B4
:100C300013F4800FD8D08D4B1B6813F4003F03D002
:100C40006368002B00F09E81236813F0020F54D0DC
:100C5000864B9B6813F00C0F3ED0844B9B6803F0CF
:100C60000C03082B33D0E368002B67D0804B0122A4
:100C70001A6000F0E1FE05467C4B1B6813F0020F82
:100C800053D100F0D9FE401B0228F5D903207EE1A4
:100C9000764A136843F480331360B5E7734B1A68E0
:100CA00042F480221A601A6842F480321A60ABE77C
:100CB00000F0C2FE05466D4B1B6813F4003FC3D025
:100CC00000F0BAFE401B6428F5D903205FE1674BB2
:100CD0005B6813F4800FC6D1644B1B6813F0020FDE
:100CE00003D0E368012B40F04F81604A136823F082
:100CF000F803216943EAC1031360236813F0080F66
:100D000040D0636963B35B4B01221A6000F094FE2C
:100D10000546564B5B6F13F0020F33D100F08CFE8B
:100D2000401B0228F5D9032031E1504A136823F013
:100D3000F803216943EAC1031360DEE74C4B00224C
:100D40001A6000F079FE0546484B1B6813F0020F4D
:100D5000D3D000F071FE401B0228F5D9032016E124
:100D6000444B00221A6000F067FE05463F4B5B6F64
:100D700013F0020F06D000F05FFE401B0228F5D9E9
:100D8000032004E1236813F0040F78D0374B1B6C69
:100D900013F0805F0DD100230193344B1A6C42F0A5
:100DA00080521A641B6C03F080530193019B012550
:100DB00000E00025304B1B6813F4807F21D0A3682E
:100DC000012B32D0052B36D0284B1A6F22F00102AE
:100DD0001A671A6F22F004021A67A368002B34D036
:100DE00000F02AFE0646214B1B6F13F0020F45D17F
:100DF00000F022FE801B41F288339842F3D9032091
:100E0000C5E01D4A136843F48073136000F014FEBC
:100E10000646194B1B6813F4807FD0D100F00CFEFE
:100E2000801B0228F5D90320B1E0104A136F43F06C
:100E300001031367D1E70D4B1A6F42F004021A67E2
:100E40001A6F42F001021A67C7E700F0F5FD064687
:100E5000064B1B6F13F0020F10D000F0EDFD801B4E
:100E600041F288339842F3D9032090E000380240E1
:100E700000004742800E474200700040EDB9A36970
:100E8000002B00F08380494A926802F00C02082A85
:100E900051D0022B17D0464B00221A6000F0CCFD37
:100EA0000446424B1B6813F0007F42D000F0C4FDA3
:100EB000001B0228F5D9032069E03C4A136C23F09B
:100EC00080531364DBE73A4B00221A6000F0B4FD54
:100ED0000546364B1B6813F0007F06D000F0ACFDD2
:100EE000401B0228F5D9032051E0E369226A13432D
:100EF000626A43EA8213A26A5208013A43EA024351
:100F0000E26A43EA0263294A5360294B01221A60CC
:100F100000F092FD0446254B1B6813F0007F06D1BC
:100F200000F08AFD001B0228F5D903202FE00020E5
:100F30002DE000202BE0012B2BD01C4B5B6803F431
:100F40008001E269914226D103F03F02216A8A4280
:100F500023D1616A47F6C0721A40B2EB811F1ED1DD
:100F600003F44031A26A5208013AB1EB024F18D1A2
:100F700003F07063E26AB3EB026F14D1002006E065
:100F800001207047012002E0012000E0002002B0B3
:100F900070BD0120FBE70120F9E70120F7E7012000
:100FA000F5E70120F3E70120F1E700BF0038024038
:100FB00060004742F8B52F4B9B6803F00C03042BED
:100FC00053D0082B53D12B4B5A6802F03F025B6879
:100FD00013F4800F28D0274B5B68C3F388135801A4
:100FE0000021C01A61F100018E0146EA9066870176
:100FF0003C1A66EB0105E90041EA5471E000C018B3
:1010000041F100014B0243EAD05344022046194605
:101010000023FFF77DF9174B5B68C3F301430133EE
:101020005B00B0FBF3F023E0124B5B68C3F3881363
:101030005C010025E41A65F10005AE0146EA9466FC
:10104000A701381B66EB0501CC0044EA5074C500CB
:10105000E81844F100018B0243EA905384022046D1
:1010600019460023FFF754F9D5E7034800E0034889
:10107000F8BD00BF0038024000127A000024F400DE
:10108000002800F09B8070B50D4604464F4B1B684E
:1010900003F007038B4208D2CBB24C4A137013689B
:1010A00003F007038B4240F08B80236813F0020F9C
:1010B00017D013F0040F04D0454A936843F4E0536B
:1010C0009360236813F0080F04D0414A936843F4F7
:1010D000604393603E4A936823F0F003A1680B439A
:1010E0009360236813F0010F32D06368012B21D085
:1010F0009A1E012A25D9364A126812F0020F61D0D1
:1011000033498A6822F0030213438B6000F094FC99
:1011100006462F4B9B6803F00C036268B3EB820F0B
:1011200016D000F089FC801B41F288339842F0D938
:10113000032042E0264A126812F4003FE0D1012069
:101140003BE0234A126812F0007FD9D1012034E03D
:101150001E4B1B6803F00703AB4207D9EAB21B4BD7
:101160001A701B6803F00703AB422DD1236813F0FC
:10117000040F06D0164A936823F4E053E1680B434A
:101180009360236813F0080F07D0114A936823F483
:101190006043216943EAC1039360FFF70BFF0C4BE7
:1011A0009B68C3F303130B4AD35CD8400A4B186007
:1011B0000A4B186800F0F4FB002070BD0120704756
:1011C0000120FAE70120F8E70120F6E7003C0240A1
:1011D00000380240D8E200080C000020080000207F
:1011E000014B1868704700BF0C00002008B5FFF7DE
:1011F000F7FF044B9B68C3F38223034AD35CD840B8
:1012000008BD00BF00380240E8E2000808B5FFF75B
:10121000E7FF044B9B68C3F34233034AD35CD840D7
:1012200008BD00BF00380240E8E2000800230F2B91
:1012300000F2DD80F0B482B05DE086685F000324D8
:10124000BC4026EA0406CC68BC403443846046684F
:1012500026EA02064C68C4F300129A403243426008
:1012600057E0DC08083450F8247003F007029600B9
:101270000F22B24027EA02070A69B2403A4340F817
:1012800024205AE0072200E00022B2403A43023410
:10129000574E46F82420574A9468EA4324EA050644
:1012A0004F6817F4801F01D045EA0406514CA66030
:1012B000E46802EA04064F6817F4001F01D045EA0B
:1012C00004064C4CE660646802EA04064F6817F4B2
:1012D000003F01D045EA0406464C6660246822407F
:1012E0004E6816F4803F01D045EA0402414C22606A
:1012F00001330F2B78D801229A400C6804EA0205CA
:1013000032EA0404F4D14C6804F00304013C012CDB
:1013100093D94A6802F00302032A09D0C4685E0028
:101320000322B24024EA02048A68B2402243C26027
:101330004A6802F00302022A93D004685E00032286
:10134000B24024EA02044A6802F00302B240224397
:1013500002604A6812F4403FCAD000220192264A35
:10136000546C44F480445464526C02F48042019200
:10137000019A9C08A61C1E4A52F8267003F003022C
:1013800096000F22B24027EA02071C4A90423FF41F
:101390007BAF02F5806290421AD002F580629042E3
:1013A00018D002F58062904216D002F58062904219
:1013B00014D002F58062904212D002F58062904211
:1013C00010D002F5806290423FF45CAF08225CE7E7
:1013D00001225AE7022258E7032256E7042254E783
:1013E000052252E7062250E702B0F0BC7047704772
:1013F00000380140003C014000380240000002403B
:1014000030B405682C6824F480242C600468636080
:101410008368402B05D0036899600368DA6030BCAC
:10142000704703689A600368D960F8E710B40368EE
:10143000D9B210390C4AA2FB014212090B4CA25C32
:10144000C2655F2909D923F47F7323F003030433B2
:101450008365806D5DF8044B704723F47F7323F040
:1014600003038365F5E700BFABAAAAAAD0E2000890
:10147000836A826992B9012B0AD0022B02D00BB188
:1014800000207047C36A13F0807F28D10020704786
:10149000C36AB3F1C07F24D000207047B2F5005F6B
:1014A00009D0022B25D9032B25D1C36A13F0807FE5
:1014B00023D100207047032B03D8DFE803F0140486
:1014C000140A00207047C36A13F0807F0DD10020FA
:1014D0007047C36AB3F1C07F09D000207047012074
:1014E000704701207047012070470120704701209C
:1014F00070470120704700207047012070470000AE
:1015000070B5044600F098FA002C5BD00546022323
:1015100084F83530002384F834302268136823F0CF
:101520000103136023681A6812F0010F0AD000F05B
:1015300083FA431B052BF5D920236365032084F828
:10154000350070BD1A68204810406168A2680A43DF
:10155000E1680A4321690A4361690A43A1690A43B0
:10156000E1690A43216A0A430243616A04291ED0E1
:101570001A602668756925F00705636A1D43042B08
:1015800007D1A36A1D43E36A1BB12046FFF770FF32
:1015900090B975612046FFF749FFE26D3F23934004
:1015A000836000206065012384F83530C9E7E16A73
:1015B000206B01430A43DBE740236365012084F885
:1015C0003500BEE70120BCE73F8010F038B5044687
:1015D000856D90F8340001282BD0012084F8340068
:1015E00094F83500C0B2012804D0002384F83430C8
:1015F000022038BD022084F83500002060652046B6
:10160000FFF7FEFEE26D3F239340AB602268136854
:1016100043F016031360236C23B12268136843F070
:10162000080313602268136843F00103136000206D
:10163000DFE70220DDE770B50446866D00F0FCF9B7
:1016400094F83530DBB2022B06D08023636500238B
:1016500084F83430012070BD05462268136823F0F9
:10166000160313602268536923F080035361236CCF
:10167000E3B12268136823F008031360226813683B
:1016800023F00103136023681B6813F0010F11D0CE
:1016900000F0D2F9431B052BF5D920236365032005
:1016A00084F83500002384F83430D4E7A36C002B91
:1016B000DFD1E3E7E26D3F239340B360012384F879
:1016C0003530002084F83400C5E790F83530DBB2BF
:1016D000022B03D08023436501207047052380F847
:1016E00035300268136823F001031360002070474F
:1016F000F0B583B0044600230193724B1D68724B12
:10170000A3FB0535AD0A876D3E68C26D0823934083
:10171000334210D003681A6812F0040F0BD01A6815
:1017200022F004021A60C26D08239340BB60436D2F
:1017300043F001034365E26D01239340334209D036
:101740002268526912F0800F04D0BB60636D43F0D1
:1017500002036365E26D04239340334209D022689B
:10176000126812F0020F04D0BB60636D43F00403F3
:101770006365E26D10239340334224D022681268DF
:1017800012F0080F1FD0BB6023681A6812F4802F74
:101790000DD01B6813F4002F04D1236C9BB120469D
:1017A000984710E0A36C73B1204698470BE01A6885
:1017B00012F4807F03D11A6822F008021A60236CA9
:1017C0000BB120469847E26D20239340334255D019
:1017D0002268126812F0100F50D0BB6094F83530B8
:1017E000DBB2052B0ED023681A6812F4802F33D099
:1017F0001B6813F4002F2AD1636C002B3ED02046C7
:1018000098473BE02268136823F0160313602268B0
:10181000536923F080035361236CA3B122681368DA
:1018200023F008031360E26D3F239340BB60012364
:1018300084F83530002384F83430236D002B3FD0FA
:10184000204698473CE0A36C002BE7D1EBE7E36B25
:10185000A3B12046984711E01A6812F4807F09D19D
:101860001A6822F010021A60012384F83530002330
:1018700084F83430E36B0BB120469847636DFBB1BD
:10188000636D13F0010F17D0052384F835302268FB
:10189000136823F001031360019B01330193AB42F2
:1018A00004D823681B6813F0010FF5D1012384F8D5
:1018B0003530002384F83430E36C0BB12046984770
:1018C00003B0F0BD0C000020B5814E1B074AD36861
:1018D00023F4E0631B041B0C000200F4E0600343EC
:1018E00043F0BF6343F40033D360704700ED00E082
:1018F00030B4174BDB68C3F30223C3F10704042C95
:1019000028BF04241D1D062D18D9033B4FF0FF35B9
:1019100005FA04F421EA0401994005FA03F322EAE6
:101920000303194300280BDB0901C9B200F1604031
:1019300000F5614080F8001330BC70470023E5E7F4
:1019400000F00F000901C9B2024B1954F4E700BFBF
:1019500000ED00E014ED00E0002807DB00F01F02BE
:10196000400901239340024A42F82030704700BFEB
:1019700000E100E00138B0F1807F0AD2064B5860E8
:10198000064AF02182F823100020986007221A608E
:1019900070470120704700BF10E000E000ED00E05C
:1019A00010B504460E4B18784FF47A73B3FBF0F37E
:1019B0000C4A1068B0FBF3F0FFF7DCFF68B90F2C9E
:1019C00001D901200AE0002221464FF0FF30FFF745
:1019D0008FFF054B1C60002000E0012010BD00BF00
:1019E000040000200C0000200800002008B50B4B6C
:1019F0001A6842F400721A601A6842F480621A602F
:101A00001A6842F480721A600320FFF75FFF0F200C
:101A1000FFF7C6FFFFF7B0F8002008BD003C02400A
:101A2000034A1168034B1B780B441360704700BFD7
:101A3000D891002004000020014B1868704700BFB7
:101A4000D8910020026802F10C0353E8003F23F014
:101A5000C0030C3242E800310029F3D1202380F882
:101A60003D307047026802F10C0353E8003F23F455
:101A700090730C3242E800310029F3D1026802F180
:101A8000140353E8003F23F00103143242E800310D
:101A90000029F3D1036B012B05D0202380F83E30C1
:101AA000002303637047026802F10C0353E8003F10
:101AB00023F010030C3242E800310029F3D1ECE7A7
:101AC00090F83D30DBB2212B01D0022070478368B3
:101AD000B3F5805F17D0036A5A1C02621A78036854
:101AE0005A60C38C9BB2013B9BB2C3844BB9026862
:101AF000D36823F08003D3600268D36843F04003C7
:101B0000D360002070470369002BE4D1036A1B886F
:101B10000268C3F308035360036A02330362E0E719
:101B200070B504460268136923F44053C1680B433F
:101B3000136183680269134342691343C2691A43FC
:101B40000168CB6823F4164323F00C031343CB60E6
:101B50000268536923F4407381690B43536103683E
:101B6000344A934206D002F58062934202D0FFF7D6
:101B70003DFB01E0FFF74AFBE369B3F5004F2AD0D4
:101B80000026051846EB06012D1846EB0101CB0097
:101B900043EA5573EA001546194663689A009B0F9D
:101BA000281846EB0101FEF7B3FB234DA5FB0032DD
:101BB0005109642303FB11031B013233A5FB0323EB
:101BC0005B0903F0F00202EB011203F00F0321683E
:101BD00013448B6070BD0026051846EB06012D18D6
:101BE00046EB0101CB0043EA5573EA00154619465E
:101BF00062683346921846EB0303281846EB01014E
:101C0000FEF786FB0C4DA5FB00325109642303FB54
:101C10001103DB003233A5FB03235B095A0002F4F6
:101C2000F87202EB011203F00703216813448B6082
:101C3000D0E700BF001001401F85EB5158B310B52D
:101C4000044690F83D300BB3242384F83D302268DD
:101C5000D36823F40053D3602046FFF761FF226866
:101C6000136923F4904313612268536923F02A0314
:101C700053612268D36843F40053D360002020648A
:101C8000202384F83D3084F83E3010BD80F83C308D
:101C9000FEF754FED8E701207047000038B590F8F1
:101CA0003D30DBB2202B38D10446002937D0002A42
:101CB00037D090F83C30012B35D0012380F83C30F0
:101CC00001628284C28400250564212380F83D30AE
:101CD000436B1648D863636B15481864636B1548EB
:101CE000D864636B1D6520681346021D606BFFF7A7
:101CF0006DFC23686FF040021A6084F83C50226843
:101D000002F1140353E8003F43F08003143242E829
:101D100000310029F3D1002000E0022038BD01206D
:101D2000FCE70120FAE70220F8E700BFBF1D00082A
:101D3000271E0008371E000810B5044603685A69BC
:101D400090F83D30DBB2212B0AD023685A6902F0AB
:101D5000400294F83E30DBB2222B19D0002010BD97
:101D600002F08002002AF0D0226802F1140353E846
:101D7000003F23F08003143242E800310029F3D100
:101D8000606B08B1FFF757FC2046FFF75BFEDCE70E
:101D9000002AE3D0226802F1140353E8003F23F045
:101DA0004003143242E800310029F3D1A06B08B19E
:101DB000FFF741FC2046FFF755FECFE7704708B517
:101DC0000346806B1B681B6813F4807F1AD10023C5
:101DD000C384026802F1140353E8003F23F0800338
:101DE000143242E800310029F3D1026802F10C03F9
:101DF00053E8003F43F040030C3242E80031002931
:101E0000F3D108BDFFF7DAFFFBE708B50168CA6840
:101E100022F04002CA60202280F83D20FFF7CEFF6A
:101E2000002008BD704708B5806BFFF7FBFF08BDB9
:101E300070477047704710B5846B23685A6994F8EF
:101E40003D30DBB2212B10D023685A6902F04002EA
:101E500094F83E30DBB2222B11D0236C43F01003F8
:101E600023642046FFF7E6FF10BD02F08002002A3F
:101E7000EAD00023E3842046FFF7E4FDE4E7002AEC
:101E8000EBD00023E3852046FFF7ECFDE5E708B53E
:101E9000806B0023C385C384FFF7CCFF08BD704768
:101EA00090F83E30DBB2222B67D18368B3F5805FB8
:101EB0004DD0826AB3F5805F04D0002B54D1036902
:101EC000002B51D103685B681370836A013383620E
:101ED000C38D9BB2013B9BB2C385002B4FD100B594
:101EE00083B00268D36823F02003D3600268D3680C
:101EF00023F48073D3600268536923F001035361B4
:101F0000202380F83E30036B012B33D10023036381
:101F1000026802F10C0353E8003F23F010030C3277
:101F200042E800310029F3D103681A6812F0100F5B
:101F300006D0002201921A6801925B680193019B0E
:101F4000818DFFF7ACFF002003B05DF804FB026950
:101F5000002AAED1826A03685B68C3F3080313806A
:101F6000836A02338362B3E703685B6803F07F032D
:101F70001370AAE7FFF75CFFE5E702207047002037
:101F80007047000030B583B0044602681368D0681B
:101F9000516913F00F0505D113F0200F02D010F096
:101FA000200F19D12DB111F0010119D110F4907F3A
:101FB00016D1216B01297DD013F0800F03D010F0D2
:101FC000800F40F0158113F0400F03D010F0400F48
:101FD00040F0128103B030BD2046FFF761FFF9E702
:101FE00013F0010F06D010F4807F03D0226C42F072
:101FF0000102226413F0040F04D019B1226C42F0E4
:102000000202226413F0020F04D019B1226C42F0D4
:102010000402226413F0080F07D010F0200F00D143
:1020200019B1226C42F008022264226C002AD1D03D
:1020300013F0200F02D010F0200F29D123685B6924
:1020400003F04003226C12F0080F00D163B3204666
:10205000FFF708FD23685B6913F0400F20D022686A
:1020600002F1140353E8003F23F04003143242E826
:1020700000310029F3D1A36B73B1614A1A65A06BDB
:10208000FFF723FB0028A5D0A06B036D9847A1E7BD
:102090002046FFF705FFD1E72046FFF7CBFE99E783
:1020A0002046FFF7C7FE95E72046FFF7C3FE002353
:1020B00023648FE713F0100F3FF47EAF10F0100F82
:1020C0003FF47AAF0023019313680193536801939F
:1020D000019B536913F0400F50D0A26B13685B68EB
:1020E0009BB2002B3FF476AFA18D99427FF672AF81
:1020F000E385D369B3F5807F37D0226802F10C0302
:1021000053E8003F23F480730C3242E80031002989
:10211000F3D1226802F1140353E8003F23F00103D6
:10212000143242E800310029F3D1226802F114038D
:1021300053E8003F23F04003143242E80031002905
:10214000F3D1202384F83E3000232363226802F178
:102150000C0353E8003F23F010030C3242E8003137
:102160000029F3D1A06BFFF766FAA18DE38D9BB236
:10217000C91A89B22046FFF792FE2BE7A18DE38DA5
:102180009BB2C91A89B2E38D9BB2002B3FF422AFF8
:1021900000293FF41FAF226802F10C0353E8003F0F
:1021A00023F490730C3242E800300028F3D1226807
:1021B00002F1140353E8003F23F00103143242E814
:1021C00000300028F3D1202384F83E30002323631D
:1021D000226802F10C0353E8003F23F010030C3295
:1021E00042E800300028F3D12046FFF758FEF1E620
:1021F0002046FFF765FCEDE62046FFF706FEE9E620
:102200008F1E000808B5806B036B012B02D0FFF70F
:1022100010FE08BD818D4908FFF741FEF9E708B5BA
:102220000346806B1B681B6813F4807F2BD100234F
:10223000C385026802F10C0353E8003F23F4807366
:102240000C3242E800310029F3D1026802F1140394
:1022500053E8003F23F00103143242E80031002923
:10226000F3D1026802F1140353E8003F23F0400366
:10227000143242E800310029F3D1202380F83E30A7
:10228000036B012B05D0036B012B0FD0FFF7D0FDA3
:1022900008BD026802F10C0353E8003F23F010036D
:1022A0000C3242E800310029F3D1ECE7818DFFF7D1
:1022B000F6FDEDE730B583B00446134681628285B2
:1022C00000250564222280F83E20826B2048D063DE
:1022D000A26B20481064A26B1F48D064A26B1565E6
:1022E00020680A46011DA06BFFF770F9019523686D
:1022F0001A6801925B680193019B84F83C50236942
:102300005BB1226802F10C0353E8003F43F4807391
:102310000C3242E800310029F3D1226802F11403A3
:1023200053E8003F43F00103143242E80031002932
:10233000F3D1226802F1140353E8003F43F0400355
:10234000143242E800310029F3D1002003B030BD3F
:102350001F22000805220008371E000808B590F863
:102360003E30DBB2202B0DD171B17AB190F83C3008
:10237000012B0DD0012380F83C3000230363FFF7CD
:1023800099FF00E0022008BD0120FCE70120FAE7E8
:102390000220F8E7034AD2F8883043F47003C2F809
:1023A0008830704700ED00E000F1080343604FF013
:1023B000FF328260C3600361002303607047002323
:1023C0000361704743684B609A688A605160996006
:1023D0000861036801330360704730B40D68B5F1DC
:1023E000FF3F11D000F108031C465B681A68AA423F
:1023F000FAD963684B6099608C606160086103681A
:102400000133036030BC70470469F2E70369416837
:1024100082688A60416851605A68824206D0002210
:1024200002611A68013A1A601868704782685A6037
:10243000F5E710B5044601F005FCA26BE36B9A4288
:1024400004D0002401F020FC204610BD0124F9E74F
:1024500010B5044601F0F6FBA36B23B9012401F08B
:1024600013FC204610BD0024F9E770B5044615465C
:10247000866B026C5AB903681BB100200136A66353
:1024800070BD806800F0E6FF0023A360F6E76DB939
:10249000406802F0E5F8226C636813446360A26848
:1024A000934219D3236863602846E7E7C06802F0C7
:1024B000D7F8226C5142E3689B1AE360226893428A
:1024C00002D2A3680B44E360022D01D00020D5E7BF
:1024D00026B1013E0020D1E72846CFE70020CDE716
:1024E0000346026C6AB110B50846D9681144D96038
:1024F0009C68A14201D31968D960D96802F0B0F88C
:1025000010BD704738B5054601F09CFB95F8454075
:1025100064B203E000F088FF013C64B2002C08DDE7
:102520006B6A33B105F1240000F0CEFE0028F3D031
:10253000F0E7FF2385F8453001F0A6FB01F082FBB0
:1025400095F8444064B203E000F06EFF013C64B2D1
:10255000002C08DD2B6933B105F1100000F0B4FE4A
:102560000028F3D0F0E7FF2385F8443001F08CFB1E
:1025700038BD000038B5E0B10D46044601F062FBFD
:102580002168E26B236C03FB0210A0600020A063B3
:102590006160013A02FB0313E360FF2384F84430D7
:1025A00084F84530EDB9236963B901F06DFB012072
:1025B00038BD4FF0500383F31188BFF36F8FBFF323
:1025C0004F8FFEE704F1100000F07EFE0028ECD0F3
:1025D000084B4FF080521A60BFF34F8FBFF36F8FDD
:1025E000E3E704F11000FFF7DFFE04F12400FFF73A
:1025F000DBFEDAE704ED00E038B51D46049C0B462F
:1026000049B92460E063236401212046FFF7B2FF4B
:1026100084F84C5038BD2260F4E740B94FF05003C5
:1026200083F31188BFF36F8FBFF34F8FFEE730B591
:1026300085B01C46054653B192B189B94FF050039D
:1026400083F31188BFF36F8FBFF34F8FFEE74FF017
:10265000500383F31188BFF36F8FBFF34F8FFEE7F3
:102660006AB150230393039B502B13D04FF05003B8
:1026700083F31188BFF36F8FBFF34F8FFEE70029FD
:10268000EFD04FF0500383F31188BFF36F8FBFF388
:102690004F8FFEE7039B012384F8463000949DF89A
:1026A00020302846FFF7A8FF204605B030BD0000C7
:1026B000F0B585B0019288B10E461D460446B1B111
:1026C000022D20D1E36B012B1DD04FF0500383F37B
:1026D0001188BFF36F8FBFF34F8FFEE74FF05003AA
:1026E00083F31188BFF36F8FBFF34F8FFEE7036C47
:1026F000002BE5D04FF0500383F31188BFF36F8FA9
:10270000BFF34F8FFEE700F095FE074658B9019BD7
:10271000002B44D04FF0500383F31188BFF36F8F29
:10272000BFF34F8FFEE7002739E02A4631462046A7
:10273000FFF79BFE626A6AB938B13C4B4FF080529A
:102740001A60BFF34F8FBFF36F8F01F09DFA012026
:1027500005B0F0BD04F1240000F0B6FD0028F4D06F
:10276000324B4FF080521A60BFF34F8FBFF36F8F21
:10277000EBE701F089FA0020EAE702A800F006FE84
:10278000012719E0002384F8443021E0002384F875
:10279000453023E02046FFF7B5FE00F073FC01F062
:1027A00051FAA26BE36B9A42BFD3022DBDD0019BBD
:1027B000002BDED0002FE0D001F066FA00F0C6FB5F
:1027C00001F040FA94F844305BB2B3F1FF3FD9D046
:1027D00094F845305BB2B3F1FF3FD7D001F054FA23
:1027E00001A902A800F0DEFDC8B92046FFF721FECE
:1027F0000028CFD0019904F1100000F031FD2046EF
:10280000FFF780FE00F03EFC0028C8D1074B4FF0D8
:1028100080521A60BFF34F8FBFF36F8FBFE7204620
:10282000FFF770FE00F02EFC002091E704ED00E0C1
:102830002DE9F84390B1894690461F460446B1B150
:10284000022F20D1E36B012B1DD04FF0500383F3F7
:102850001188BFF36F8FBFF34F8FFEE74FF0500328
:1028600083F31188BFF36F8FBFF34F8FFEE7036CC5
:10287000002BE5D04FF0500383F31188BFF36F8F27
:10288000BFF34F8FFEE701F007FBEFF311864FF028
:10289000500383F31188BFF36F8FBFF34F8FA26B89
:1028A000E36B9A4206D3022F04D0002086F31188EE
:1028B000BDE8F88394F845506DB2A36B3A4649469B
:1028C0002046FFF7D2FDB5F1FF3F05D06B1C5BB290
:1028D00084F845300120E9E7636A0BB90120E5E798
:1028E00004F1240000F0F0FC30B1B8F1000F05D085
:1028F0000120C8F80000D9E70120D7E70120D5E77B
:10290000F0B585B0019290B10E460446C1B100F019
:1029100091FD074600BB019B002B5CD04FF050039C
:1029200083F31188BFF36F8FBFF34F8FFEE74FF034
:10293000500383F31188BFF36F8FBFF34F8FFEE710
:10294000036C002BE3D04FF0500383F31188BFF3E7
:102950006F8FBFF34F8FFEE700273CE031462046E4
:10296000FFF7BEFD013DA563236923B901F08CF992
:10297000012005B0F0BD04F1100000F0A5FC002816
:10298000F4D0354B4FF080521A60BFF34F8FBFF336
:102990006F8FEBE701F078F90020EAE702A800F07A
:1029A000F5FC012721E0002384F8443029E00023CE
:1029B00084F845302BE02046FFF7A4FD00F062FBD1
:1029C00009E02046FFF79EFD00F05CFB2046FFF784
:1029D0003FFD00283DD101F035F9A56B002DBDD19B
:1029E000019B002BD6D0002FD8D001F04DF900F07C
:1029F000ADFA01F027F994F844305BB2B3F1FF3F30
:102A0000D1D094F845305BB2B3F1FF3FCFD001F0A5
:102A10003BF901A902A800F0C5FC0028D1D120464D
:102A2000FFF716FD0028C6D0019904F1240000F03C
:102A300017FC2046FFF766FD00F024FB0028CAD1F2
:102A4000054B4FF080521A60BFF34F8FBFF36F8F6B
:102A5000C1E700208DE700BF04ED00E0002300E0A7
:102A60000133072B0BD8064A52F83320002AF7D13E
:102A7000034A42F8331002EBC303586070477047B3
:102A8000DC91002070B504460D46164601F0DAF8D8
:102A900094F844305BB2B3F1FF3F0DD094F8453069
:102AA0005BB2B3F1FF3F0BD001F0EEF8A36B5BB16B
:102AB0002046FFF727FD70BD002384F84430EDE782
:102AC000002384F84530EFE73246294604F124001C
:102AD00000F0DEFBECE70000084B1B681B6823B925
:102AE000074B4FF0FF321A607047044B1B68DB68DE
:102AF000DB685A68024B1A60704700BF080100206B
:102B0000AC0500202DE9F04780460D461746994652
:102B1000089EDDF824A00A9C9200A521206B01F0FC
:102B2000ADFD236B07F18042013A03EB820727F0EA
:102B3000070785B300220F2A07D8A95CA31883F8DA
:102B40003410AB5C0BB10132F5E7002384F843305D
:102B5000372E00D93726E662E66400252565201D5C
:102B6000FFF72DFC04F11800FFF729FC2461C6F1E2
:102B70003806A6616462656584F858504A46414645
:102B8000384601F031F82060BAF1000F01D0CAF8E0
:102B90000040BDE8F087002384F83430D8E7000017
:102BA00038B50024372C08D804EB840293000E4873
:102BB0001844FFF7F9FB0134F4E70C4D2846FFF702
:102BC000F3FB0B4C2046FFF7EFFB0A48FFF7ECFB4B
:102BD0000948FFF7E9FB0948FFF7E6FB084B1D60D2
:102BE000084B1C6038BD00BF100100208405002088
:102BF00098050020B8050020E4050020D00500203D
:102C0000080100200C01002010B5044601F01AF85C
:102C1000214A136801331360204B1B685BB1204BC2
:102C20001B686BB91D4B1B68DA6AE36A9A4207D8C6
:102C30001A4B1C6004E0194B1C601368012B27D051
:102C4000184A1368013313606364E06A164B1B680B
:102C5000984201D9144B186000EB8000211D134BE2
:102C600003EB8000FFF7AEFB01F00EF80C4B1B6886
:102C70006BB10A4B1B68DA6AE36A9A4207D20C4BC3
:102C80004FF080521A60BFF34F8FBFF36F8F10BDAC
:102C9000FFF786FFD4E700BF700500200401002085
:102CA000CC0500207C0500208005002010010020BC
:102CB00004ED00E010B5044690F8593063B1012BE3
:102CC00011D0022B0ED04FF0500383F31188BFF3C5
:102CD0006F8FBFF34F8FFEE7006B00F009FF2046B8
:102CE00000F006FF10BD00F003FFFBE70F4B1B6871
:102CF000D3B110B500F0A6FF0D4BDB68DC68201DDA
:102D0000FFF784FB0B4A1368013B1360074A136803
:102D1000013B136000F0B8FF2046FFF7CBFF034BE9
:102D20001B68002BE6D110BD704700BF7405002062
:102D3000E40500207005002008B5FFF7D7FF064B1B
:102D40001B68012BF9D9054B4FF080521A60BFF375
:102D50004F8FBFF36F8FF0E71001002004ED00E00C
:102D600070B504460D46174B1E68174B18680430A3
:102D7000FFF74CFBB4F1FF3F0DD03444124B1B68FE
:102D80005C60A64210D9114B18680F4B19680431CA
:102D9000FFF723FB70BD002DEFD00B4B19680431FA
:102DA0000B48FFF70FFBF5E70A4B1868064B19684D
:102DB0000431FFF712FB084B1B68A342EAD9064B0C
:102DC0001C60E7E7F8050020040100200C0100204A
:102DD000D005002008010020AC05002070B586B0A9
:102DE0000B9D0C9C75B1B4B15C260496049E5C2EC0
:102DF0001AD04FF0500383F31188BFF36F8FBFF3E6
:102E00004F8FFEE74FF0500383F31188BFF36F8FAE
:102E1000BFF34F8FFEE74FF0500383F31188BFF3EA
:102E20006F8FBFF34F8FFEE7049E2563022584F862
:102E3000595000250395029405AD01950A9D009512
:102E4000FFF760FE2046FFF7DFFE059806B070BD75
:102E50002DE9F04385B00746884614461E4690008B
:102E600000F0C8FD00B381465C2000F0C3FD0546BC
:102E7000B0B1C0F83090E5B1002385F85930039324
:102E800002950D9B01930C9B0093334622464146CD
:102E90003846FFF737FE2846FFF7B6FE012005E06B
:102EA000484600F025FEE6E74FF0FF3005B0BDE8EC
:102EB000F0834FF0FF30F9E710B588B00024059497
:102EC000069407AA06A905A801F0EAF8059B029353
:102ED000069B019300942346079A17491748FFF76A
:102EE0007DFF48B100F06AFB0346012B06D0B3F129
:102EF000FF3F18D008B010BD0023F6E74FF0500395
:102F000083F31188BFF36F8FBFF34F8F0C4B4FF0DC
:102F1000FF321A600B4B01221A600B4B00221A6021
:102F200000F032FFE6E74FF0500383F31188BFF360
:102F30006F8FBFF34F8FFEE7F0E20008392D0008D6
:102F4000AC050020CC050020F8050020024A1368DB
:102F500001331360704700BF78050020014B1868EB
:102F6000704700BFF8050020F8B53B4B1B68002BED
:102F70006AD13A4B1D6801351D60C5B9384B1B68D5
:102F80001B6843B14FF0500383F31188BFF36F8F79
:102F9000BFF34F8FFEE7324A1168324B186810605A
:102FA0001960314A136801331360FFF795FD2F4B09
:102FB0001B68AB4211D900242D4B1B68DB6A03EB65
:102FC00083039A002B4B9B58012B00D901242A4BD9
:102FD0001B68002B3DD001243BE0002416E0234B6E
:102FE0004FF0FF321A60E7E7204A1360E4E703EB93
:102FF00083039A0039461F481044FFF7E3F9F26A49
:103000001B4B1B68DB6A9A4200D30124144B1B68DC
:103010001B68002BE3D0124B1B68DB68DE6873680B
:103020009D42E1D3371D3846FFF7F0F9B36A1BB173
:1030300006F11800FFF7EAF9F36A104A12689342A2
:10304000D5D90E4A1360D2E70D4A136801331360D5
:1030500000242046F8BD00BF78050020F8050020B8
:10306000080100200C010020B0050020AC05002064
:103070000401002010010020FC0500208005002034
:10308000B405002038B5344B1B6843B94FF05003EA
:1030900083F31188BFF36F8FBFF34F8FFEE700F00C
:1030A000D1FD2D4B1A68013A1A601B68002B4DD1D7
:1030B0002A4B1B680BB9002449E00024284B1B68ED
:1030C0001BB3274BDB68DC6804F11800FFF79EF99F
:1030D000251D2846FFF79AF9E06A224B1B689842A3
:1030E00001D9204B186000EB800029461E4B03EBF2
:1030F0008000FFF767F9E26A1C4B1B68DB6A9A42A3
:10310000DCD31B4B01221A60D8E70CB1FFF7E4FCBB
:10311000184B1C6874B9164B1C68C4B1164B4FF0A1
:1031200080521A60BFF34F8FBFF36F8F01240EE000
:10313000013C07D0FFF718FF0028F9D00C4B012203
:103140001A60F5E70B4B00221A60E4E7002400F058
:103150009BFD204638BD00BF78050020700500208B
:10316000B805002080050020100100200401002087
:10317000FC050020B405002004ED00E010B5A8B166
:1031800004460F4B1B6843B14FF0500383F3118883
:10319000BFF36F8FBFF34F8FFEE7FFF7D7FE00211E
:1031A0002046FFF7DDFDFFF76DFF38B9054B4FF007
:1031B00080521A60BFF34F8FBFF36F8F10BD00BFF7
:1031C0007805002004ED00E0204B1B681BB1204B6C
:1031D00001221A6070471E4B00221A601D4B1B68AB
:1031E00003EB83018A001C498A585AB90BB1013B91
:1031F000F6E74FF0500383F31188BFF36F8FBFF3EF
:103200004F8FFEE710B403EB830082000A4450683E
:103210004068506003EB8304A20014460832114456
:1032200088420DD003EB830291000B4A0A44526896
:10323000D1680A4A1160074A13605DF8044B704771
:103240004068054A22445060ECE700BF7805002042
:10325000FC05002080050020100100200401002052
:1032600058B110B50C46094B19681831FFF7B5F87D
:1032700001212046FFF774FD10BD4FF0500383F38A
:103280001188BFF36F8FBFF34F8FFEE7040100205B
:1032900038B570B10C4615460A4B19681831FFF75E
:1032A00091F80DB14FF0FF3429462046FFF758FD45
:1032B00038BD4FF0500383F31188BFF36F8FBFF316
:1032C0004F8FFEE70401002038B5C368DC6824B3E3
:1032D00004F118052846FFF799F8184B1B682BBB1B
:1032E000251D2846FFF792F8E06A154B1B689842A7
:1032F00001D9134B186000EB80002946114B03EBFA
:103300008000FFF75FF8E26A0F4B1B68DB6A9A42A6
:1033100011D901200D4B18600EE04FF0500383F3DC
:103320001188BFF36F8FBFF34F8FFEE72946084820
:10333000FFF748F8E7E7002038BD00BF7805002018
:10334000800500201001002004010020FC05002061
:10335000B805002060B110B5044600F073FC094BBD
:103360001B682360084B1B68636000F08DFC10BD78
:103370004FF0500383F31188BFF36F8FBFF34F8F6C
:10338000FEE700BFB0050020F8050020034B1B68D6
:103390000360034B1B684360704700BFB00500200B
:1033A000F8050020F8B5C8B10C460546F9B100F0A3
:1033B00049FC1B4B19686B68C81A2268B2F1FF3FC1
:1033C00026D02F68174E3668B74201D08B4224D9D9
:1033D000824215D80023236001241AE04FF05003E5
:1033E00083F31188BFF36F8FBFF34F8FFEE74FF06A
:1033F000500383F31188BFF36F8FBFF34F8FFEE746
:103400005B1A134423602846FFF7C0FF002400E046
:10341000002400F039FC2046F8BD0124F9E700BF84
:10342000F8050020B0050020014B01221A6070470A
:10343000FC050020054B1B6833B1054B1B680BB125
:10344000002070470220704701207047CC05002003
:103450007805002000283BD038B504461E4B1B6879
:10346000834208D04FF0500383F31188BFF36F8F6E
:10347000BFF34F8FFEE7036D43B94FF0500383F363
:103480001188BFF36F8FBFF34F8FFEE7013B0365DA
:10349000C16AC26C91421DD00BB1002038BD051D20
:1034A0002846FEF7B3FFE06CE062C0F13803A36189
:1034B0000A4B1B68984201D9084B186000EB80004A
:1034C0002946074B03EB8000FEF77CFF0120E5E770
:1034D000002070470020E1E7040100208005002063
:1034E00010010020064B1A6813682BB901230360F2
:1034F00023B9D368186870470023F8E700207047A5
:103500000006002008B54160006191420CD8D21A33
:1035100083699A4201D3012008BD011D094B186837
:10352000FEF75BFF0020F7E79A4201D2994206D2EC
:10353000011D054B1868FEF750FF0020ECE7012045
:10354000EAE700BF040600200006002030B583B083
:1035500000F078FB114B1B681BB100F095FB03B02A
:1035600030BD0F4D2846FEF71FFF0E4C2046FEF7DC
:103570001BFF0D4B1D600D4B1C60002300930C4B7B
:103580000C4A10210A20FFF748F8044B1860002865
:10359000E3D00949FFF762FADFE700BF2407002004
:1035A000A8060020BC06002000060020040600201B
:1035B000D406002008060020F8E2000810B588B004
:1035C000FFF7C4FF124B1B68CBB10024059406948F
:1035D00007AA06A905A800F06FFD059B0293069BAC
:1035E0000193022300932346079A0A490A48FFF7EA
:1035F000F5FB0A4A106010B1012008B010BD4FF071
:10360000500383F31188BFF36F8FBFF34F8FFEE733
:103610002407002000E300082139000828070020C3
:10362000C0B110B584B014461A4603461648006867
:1036300038B300910194029305291CDCFFF7FAFED0
:10364000022810D000231A4669460F480068FFF789
:103650002FF814E04FF0500383F31188BFF36F8FFE
:10366000BFF34F8FFEE70023069A694606480068BD
:10367000FFF71EF803E000236946FFF7D9F804B00E
:1036800010BD0020FBE700BF2407002070B582B00A
:103690001B4B1B681A6862B3DB681E68DC68251D5B
:1036A0002846FEF7B3FE236A2046984794F8283050
:1036B00013F0040FECD0A36933449E4207D2636039
:1036C000246129460E4B1868FEF787FEE0E70021CB
:1036D00000910B4632462046FFF7A2FF0028D7D1C3
:1036E0004FF0500383F31188BFF36F8FBFF34F8FF9
:1036F000FEE7044A106802490860136002B070BD1A
:10370000000600200406002038B50546FFF726FC19
:103710000446074B1B68834205D800232B60044BEB
:103720001C60204638BDFFF7B1FF01232B60F6E790
:10373000D006002070B582B005460E46174B1B68B8
:10374000DB68DC68201DFEF761FE94F8283013F07A
:10375000040F08D123F0010384F82830236A20469F
:10376000984702B070BDA1692B46324629442046D5
:10377000FFF7C8FE0028F1D0002100910B462A4631
:103780002046FFF74DFF0028E8D14FF0500383F3A8
:103790001188BFF36F8FBFF34F8FFEE70006002045
:1037A00070B582B006460C46FFF7D0FB01A8FFF7C4
:1037B000ABFF019B23BB05460CB9B04217D224B125
:1037C000114A12681268CAB901242246711B0F4BB4
:1037D0001868FFF757F9FFF755FC98B90C4B4FF0F5
:1037E00080521A60BFF34F8FBFF36F8F0AE0FFF76D
:1037F00049FC29463046FFF79DFF03E01C46E4E7FD
:10380000FFF740FC02B070BD040600202407002032
:1038100004ED00E010B588B006E007990698059B16
:103820009847049B002B0BDA002204A93B4B186835
:10383000FFF766F800286FD0049B002BF1DAECE765
:10384000069C636913B1201DFEF7E0FD03A8FFF796
:103850005BFF049B092BE7D8DFE803F00505053083
:1038600037500505303794F8283043F0010384F8C9
:103870002830059BA169024619442046FFF742FE05
:103880000028D1D0236A2046984794F8283013F0B6
:10389000040FC9D0A269002100910B46059802448B
:1038A0002046FFF7BDFE0028BED14FF0500383F342
:1038B0001188BFF36F8FBFF34F8FFEE794F8283066
:1038C00023F0010384F82830AEE794F8283043F061
:1038D000010384F828300599A16131B103460246FD
:1038E00001442046FFF70EFE9EE74FF0500383F39E
:1038F0001188BFF36F8FBFF34F8FFEE794F8283026
:1039000013F0020F04D023F0010384F828308BE772
:10391000204600F0EDF887E708B010BD240700202E
:1039200000B583B001A8FFF7DDFD0199FFF738FF6F
:10393000FFF770FFF6E70000124A12F0070F1ED0E3
:10394000D11D21F00701C1F5705313440A460E48FA
:103950000260002141601344083B23F007030B4839
:10396000036059601960991A51601360084B19601F
:10397000084B1960084B4FF000421A6070474FF433
:103980007053E4E730070020444300202C07002058
:1039900038430020344300203043002010B4134B40
:1039A0001A461B688342FBD35168541884420AD0DC
:1039B00041684418A3420BD00360904200D01060CD
:1039C0005DF8044B70474068014451601046EFE7D2
:1039D000074C2468A34206D05B6819444160136811
:1039E0001B680360E9E70460E7E700BF4443002089
:1039F0002C07002070B50446FFF7A8FA364B1B6869
:103A0000A3B1364B1B681C424ED134B1083414F0BC
:103A1000070F02D024F007040834002C46D0304BA6
:103A20001B68A34251D32F4B1D6804E0FFF784FFAE
:103A3000E7E72B4615466A68A24202D22A68002AA6
:103A4000F7D1254A1268AA4241D01E6808362A6872
:103A50001A606B681B1B102B10D9281910F0070F68
:103A600008D04FF0500383F31188BFF36F8FBFF37B
:103A70004F8FFEE743606C60FFF790FF6A6818495C
:103A80000B689B1A0B60184909688B4201D21649D2
:103A90000B60124B1B6813436B6000232B60134AAF
:103AA00013680133136002E0002600E00026FFF7F0
:103AB000E9FA16F0070F0CD04FF0500383F311888A
:103AC000BFF36F8FBFF34F8FFEE70026EFE70026AF
:103AD000EDE7304670BD00BF2C07002030430020CA
:103AE0003443002044430020384300203C4300205E
:103AF000002834D038B50446A0F1080550F8043C3D
:103B0000174A1268134208D14FF0500383F311880B
:103B1000BFF36F8FBFF34F8FFEE750F8081C41B122
:103B20004FF0500383F31188BFF36F8FBFF34F8FB4
:103B3000FEE723EA020340F8043CFFF707FA54F8D3
:103B4000041C084A13680B4413602846FFF726FF3D
:103B5000054A136801331360FFF794FA38BD7047C4
:103B600030430020344300204043002082B0002333
:103B700001930D4B1B68B3F1FF3F08D04FF050038A
:103B800083F31188BFF36F8FBFF34F8FFEE74FF0C2
:103B9000500383F31188BFF36F8FBFF34F8F019BE7
:103BA000002BFCD002B070471000002008480068CD
:103BB000006880F308884FF0000080F3148862B634
:103BC00061B6BFF34F8FBFF36F8F00DF00BF000000
:103BD00008ED00E0DFF80C00016841F470010160BD
:103BE0007047000088ED00E04FF0807340F8043C1F
:103BF00021F0010140F8081C054B40F80C3C40F84E
:103C0000202C6FF0020340F8243C4438704700BF7A
:103C10006D3B0008000000000000000000000000F4
:103C2000074B19680868B0E8F04F80F30988BFF3C4
:103C30006F8F4FF0000080F311887047AFF3008062
:103C4000040100204FF0500383F31188BFF36F8FFE
:103C5000BFF34F8F0A4A136801331360012B00D062
:103C60007047084B1B6813F0FF0FF9D04FF050035B
:103C700083F31188BFF36F8FBFF34F8FFEE700BF51
:103C80001000002004ED00E0094B1B6843B94FF021
:103C9000500383F31188BFF36F8FBFF34F8FFEE79D
:103CA000013B034A13600BB983F31188704700BFCF
:103CB00010000020000000000000000000000000D4
:103CC000EFF30980BFF36F8F154B1A681EF0100FCA
:103CD00008BF20ED108A20E9F04F10602DE909009F
:103CE0004FF0500080F31188BFF34F8FBFF36F8FF9
:103CF000FFF76AFA4FF0000080F3118809BC1968D9
:103D00000868B0E8F04F1EF0100F08BFB0EC108A42
:103D100080F30988BFF36F8F704700BFAFF3008057
:103D20000401002008B54FF0500383F31188BFF35E
:103D30006F8FBFF34F8FFFF717F918B1034B4FF099
:103D400080521A60002383F3118808BD04ED00E05F
:103D5000084A0023136008490B60084B1B68084998
:103D6000A1FB03139B09013B06490B60072313606A
:103D7000704700BF10E000E018E000E00C000020F9
:103D8000D34D621014E000E03A4B1A683A4B9A4265
:103D900029D0384B1A68394B9A422DD010B582B0D1
:103DA000374B1A78D2B20192FF221A701B78DBB21D
:103DB0008DF803309DF8033003F05003314A13703F
:103DC000314B07221A609DF8033013F0800F1CD08E
:103DD0002D4A1368013B13609DF803305B00DBB292
:103DE0008DF80330EFE74FF0500383F31188BFF3F2
:103DF0006F8FBFF34F8FFEE74FF0500383F31188AF
:103E0000BFF36F8FBFF34F8FFEE71F4B1B68032B72
:103E100008D04FF0500383F31188BFF36F8FBFF3C7
:103E20004F8FFEE71B0203F4E063174A1360019B08
:103E3000DBB2134A1370154B1A6842F470021A6011
:103E40001A6842F070421A60FFF782FF0024104B9C
:103E50001C60FFF7BFFE0F4A136843F04043136036
:103E6000FFF7A4FEFFF7B0F9FFF780FE204602B08F
:103E700010BD00BF00ED00E071C20F4170C20F41E4
:103E800000E400E04C4300205043002020ED00E01F
:103E90001000002034EF00E0EFF305830F2B0FD963
:103EA000104A9B5CDBB2104A12789A4208D94FF054
:103EB000500383F31188BFF36F8FBFF34F8FFEE77B
:103EC0000A4B1B6803F4E063094A1268934208D95D
:103ED0004FF0500383F31188BFF36F8FBFF34F8F01
:103EE000FEE77047F0E300E04C4300200CED00E0FB
:103EF0005043002010B582B0002400941A4B1A6B76
:103F000042F480021A631A6B02F480020092009A53
:103F100001941A6B42F400121A631B6B03F4001332
:103F20000193019B224605211020FDF7E1FC1020A2
:103F3000FDF712FD224605211120FDF7D9FC1120C5
:103F4000FDF70AFD224605213A20FDF7D1FC3A2073
:103F5000FDF702FD224605214620FDF7C9FC46205B
:103F6000FDF7FAFC02B010BD00380240EFF3058304
:103F70002BB9064B186828B901221A6070476FF0F8
:103F8000050070474FF0FF30704700BFB04500207C
:103F9000EFF3058373B90A4B1B68012B0DD110B5E4
:103FA0000024084BDC77064B02221A60FEF784FFE0
:103FB000204610BD6FF0050070474FF0FF3070478E
:103FC000B045002000ED00E0F0B587B00024059476
:103FD000EFF3058474BB68B322B31568936903B922
:103FE00018235C1E372C49D8546814F0010F47D1B0
:103FF00056696EB14FEA960C94682CB1D7685B2F66
:1040000002D9176907B1C6B92CB14FF0FF340EE0E1
:104010004FF0800CF0E7D4688CB9146994B14FF07C
:10402000FF3404E01546002418234FF0800C012CC7
:104030000AD0ACB1059807B0F0BD0124F7E74FF006
:10404000FF34F4E70024F2E71469926802920194C5
:1040500000930B4662462946FEF7C0FE0590E9E74D
:1040600005AA019200930B461FFA8CF22946FEF72F
:10407000EFFE0128DED000230593DBE70020DAE71E
:104080000020D8E708B5EFF3058333B908B900205D
:1040900008BDFFF773F80020FAE76FF00500F7E7B7
:1040A000034B0360034B0B6080231360704700BF1A
:1040B0005445002054430020034B0360034B0B6026
:1040C0004FF4807313607047B4490020B44500205A
:1040D000124A12F0070F1ED0D11D21F00701C1F5C1
:1040E000705313440A460E48026000214160134495
:1040F000083B23F007030B48036059601960991AC5
:1041000051601360084B1960084B1960084B4FF061
:1041100000421A6070474FF47053E4E7144A0020DD
:1041200020860020104A00201C86002018860020CF
:104130001486002010B4134B1A461B688342FBD32D
:104140005168541884420AD041684418A3420BD0E5
:104150000360904200D010605DF8044B70474068E7
:10416000014451601046EFE7074C2468A34206D093
:104170005B681944416013681B680360E9E70460E9
:10418000E7E700BF20860020104A002070B50446F3
:10419000FEF7DCFE344B1B68A3B1344B1B681C429A
:1041A0004AD134B1083414F0070F02D024F00704C8
:1041B0000834002C42D02E4B1B68A3424DD32D4B0C
:1041C0001D6804E0FFF784FFE7E72B4615466A68A1
:1041D000A24202D22A68002AF7D1234A1268AA42D0
:1041E0003DD01E6808362A681A606B681B1B102BAE
:1041F00010D9281910F0070F08D04FF0500383F39F
:104200001188BFF36F8FBFF34F8FFEE743606C6081
:10421000FFF790FF6A6816490B689B1A0B601649F6
:1042200009688B4201D214490B60104B1B68134381
:104230006B6000232B6002E0002600E00026FEF702
:1042400021FF16F0070F0CD04FF0500383F31188B5
:10425000BFF36F8FBFF34F8FFEE70026EFE7002617
:10426000EDE7304670BD00BF104A002014860020E4
:1042700018860020208600201C86002080B338B5D8
:104280000446A0F1080550F8043C164A126813428F
:1042900008D14FF0500383F31188BFF36F8FBFF342
:1042A0004F8FFEE750F8081C41B14FF0500383F3E5
:1042B0001188BFF36F8FBFF34F8FFEE723EA02032E
:1042C00040F8043CFEF742FE54F8041C064A13680A
:1042D0000B4413602846FFF72DFFFEF7D3FE38BDD1
:1042E000704700BF148600201886002050F8043C58
:1042F000024A106823EA0000704700BF14860020BD
:1043000070B505460C46FEF721FE2046FFF73EFF3E
:10431000064678B175B12846FFF7E8FF08388442B1
:1043200000D3044622462946304600F099F9284633
:10433000FFF7A4FFFEF7A6FE304670BD38B5054670
:104340000C46FEF703FE05FB04F42046FFF71EFFB4
:1043500005460346621E24B1002103F8011B1446E2
:10436000F8E7FEF78FFE284638BD000008B5034683
:1043700005490A6802440A6004490A6813440B604C
:10438000FFF704FF08BD00BF288600202C86002010
:1043900058B110B50446FFF7A9FF044A13681B1A69
:1043A00013602046FFF76AFF10BD70472C8600207F
:1043B00038B50C460C4A13680B4413600B4A13685B
:1043C0000B44136058B10546FFF790FF074A136886
:1043D0001B1A136021462846FFF792FF38BD084696
:1043E000FFF7D4FEFAE700BF288600202C860020C5
:1043F00010B501FB00F3054C22681A442260044CFE
:10440000226813442360FFF799FF10BD288600201F
:104410002C860020000000002DE9F04180460D466A
:10442000144615A3D3E90023FBF722FF06460F46E7
:10443000C4E9006710A3D3E9002340462946FBF7EF
:1044400017FFA260002A01DBBDE8F081084981FB6B
:104450000231D317C3EB21730133F61A67EBE3770D
:10446000C4E90067034901FB0322A260ECE700BF37
:10447000A12FB84400CA9A3B00CA9A3B0000000032
:10448000F0B583B00F460026009601966846FEF709
:1044900061FF009D019BF41845F100056A01600170
:1044A00042EAD463001B63EB05035A0242EAD0528E
:1044B00041021346081945EB0303990141EA906153
:1044C0008201101A61EB03013A46001945EB010124
:1044D000FFF7A2FF304603B0F0BD000008B54FF46F
:1044E00000620349D0F88C02FDF738FF012008BDB7
:1044F0003086002008B5D0F88C02FDF71DFC0120A5
:1045000008BD70B5D0F88C5295F83D30DBB2202B49
:1045100001D0002070BD144692B22846FDF7BEFBC4
:10452000064646B995F83D30DBB2202B03D001207A
:10453000FFF7A8FDF5E70EB92046EBE70020E9E715
:104540002DE9F8430D4614461F46D0F88C8200260C
:1045500072B6D8F838301B685868C0F50060DFF8CC
:104560005490C9F8000062B601360120FFF78AFDB9
:104570000E4B1B68D9F80020934203D1BE42E7DB03
:10458000002000E00020094B1B689A420BD0A0429B
:1045900009D20749C95C29540133C3F30A0303490B
:1045A0000B600130EFE7BDE8F88300BF308E0020DC
:1045B00030860020348E0020DFF834D00D480E49BC
:1045C0000E4A002302E0D458C4500433C4188C426D
:1045D000F9D30B4A0B4C002301E013600432A242D2
:1045E000FBD3FDF7D7FE00F017F8FCF7C5F87047CE
:1045F0000000022000000020DC00002090EC0008F9
:10460000E0000020F8DB0020FEE70000014B186806
:10461000704700BF1400002070B50D4D0D4C641B99
:10462000A4100026A64209D10B4D0C4C09F0F4FD54
:10463000641BA4100026A64205D170BD55F8043BAA
:1046400098470136EEE755F8043B98470136F2E704
:1046500088EC000888EC000888EC00088CEC000866
:104660000A44914200F1FF3300D1704710B511F8B0
:10467000014B03F8014F9142F9D110BD02440346AA
:10468000934200D1704703F8011BF9E70FB40A4BBE
:1046900013B51C6824B1A36913B9204600F066F86D
:1046A00005AB049AA1680193204600F083F902B09B
:1046B000BDE8104004B0704714000020002310B57E
:1046C0000446C0E90033C0E9043383608181436656
:1046D000C2818361194608225C30FFF7CFFF054B8A
:1046E0006362054BA362054BE362054B24622363BF
:1046F00010BD00BF5D4F00087F4F0008B74F000896
:10470000DB4F0008014900F0AFB800BFB552000808
:1047100070B54A1E682555430E4605F1740100F038
:10472000C5F8044640B10021C0E900160C30A06075
:1047300005F16802FFF7A2FF204670BD014800F0B6
:10474000B3B800BF24920020014800F0AEB800BF0B
:1047500024920020014800F0A7B800BF1F9200205B
:10476000014800F0A2B800BF1F92002010B5044617
:10477000FFF7F0FFA3691BB1BDE81040FFF7F0BFE2
:10478000C4E912332365134B134A1B68A262A34288
:1047900004BF0123A361204600F020F8606020469A
:1047A00000F01CF8A060204600F018F80022E0603D
:1047B00004216068FFF782FFA06801220921FFF74A
:1047C0007DFFE06802221221FFF778FF0123A36139
:1047D000D2E700BF08E3000805470008F8B5074620
:1047E000FFF7ACFF1E4B1E68B36913B93046FFF7E5
:1047F000BDFF4836D6E90134013B03D533680BB31E
:104800003668F7E7B4F90C50D5B9164BE36004F1FC
:104810005800656600F047F8FFF796FFC4E90155B8
:10482000C4E904552560A5610822294604F15C000D
:10483000FFF724FFC4E90D55C4E912552046F8BD21
:104840006834D9E704213846FFF762FF0446306038
:104850000028D5D1FFF778FF0C233B60EEE700BFBF
:1048600008E300080100FFFF2DE9F84306468846EB
:1048700000F148040027D4E90195B9F1010905D5F3
:104880002468002CF7D13846BDE8F883AB89012BAA
:1048900007D9B5F90E30013303D029463046C04759
:1048A00007436835E9E7704770477047F8B5CD1C96
:1048B00025F0030508350C2D38BF0C25002D0646C4
:1048C00001DBA94203D90C2333600020F8BD00F0BE
:1048D000BDFD21490A6814469CB9204F3B6823B9A5
:1048E0002146304600F02AFB38602946304600F069
:1048F00025FB431C23D10C233360304600F0ACFD74
:10490000E3E723685B1B17D40B2B03D923601C44FC
:10491000256004E06368A2420CBF0B605360304620
:1049200000F09AFD04F10B00231D20F00700C21ACD
:10493000CCD01B1AA350C9E722466468CCE7C41C3C
:1049400024F00304A042E3D0211A304600F0F6FA26
:104950000130DDD1CFE700BF388E00203C8E002033
:104960009368013B002B10B4936008DA9469A3426A
:1049700001DB0A2903D15DF8044B00F033BB136857
:10498000581C1060197008465DF8044B7047F8B564
:1049900006460F461446D518AC4201D1002007E068
:1049A00014F8011B3A463046FFF7DAFF431CF3D1F7
:1049B000F8BD00002DE9F04F0D469DB01446984615
:1049C000064618B183690BB9FFF7D0FE894B9D42AB
:1049D0001BD175686B6ED90705D4AB899A0502D4D3
:1049E000A86DFFF761FFAB891B0701D52B69EBB9F8
:1049F0002946304600F05AFBC0B16B6EDC070ED57D
:104A00004FF0FF301DB0BDE8F08F7B4B9D4201D1D0
:104A1000B568DFE7794B9D4208BFF568DAE7AB89F7
:104A20009805EDD4A86DFFF740FFE9E7002309934F
:104A300020238DF82930CDF80C803023DFF8C08199
:104A40008DF82A304FF0010923469A4613F8012BBE
:104A50000AB1252AF9D1BAEB040B0BD05B462246EA
:104A600029463046FFF793FF013000F0AA80099AEB
:104A70005A4409929AF80030002B00F0A2800023DB
:104A80004FF0FF32CDE905230AF1010A04930793A1
:104A90008DF853301A935446052214F8011B5848D8
:104AA000FBF796FB049AD8B9D10644BF20238DF8B2
:104AB0005330130744BF2B238DF853309AF800303E
:104AC0002A2B15D0079A544600204FF00A0C214695
:104AD00011F8013B303B092B4ED9B0B1079214E0DD
:104AE000A0EB080309FA03F313430493A246D2E7A9
:104AF000039B191D1B680391002BBBBF5B4242F057
:104B0000020207930793B8BF049223782E2B0CD18F
:104B100063782A2B35D1039B1A1D1B680392002B47
:104B2000B8BF4FF0FF3302340593DFF8E4A02178DB
:104B300003225046FBF74CFB40B14023A0EB0A0098
:104B400003FA00F0049B03430134049314F8011B9F
:104B50002C488DF828100622FBF73AFB00283FD09E
:104B6000294B1BBB039B073323F007030833039335
:104B7000099B3B44099367E70CFB02320C4601207A
:104B8000A5E700230134059319464FF00A0C20468F
:104B900010F8012B303A092A03D9002BC5D0059112
:104BA000C3E70CFB012104460123F0E703AB0093AC
:104BB0002A46164B04A93046AFF300800746781CFE
:104BC000D6D16B6ED90705D4AB899A0502D4A86DEE
:104BD000FFF76BFEAB895B063FF512AF099811E753
:104BE00003AB00932A46094B04A9304600F080F835
:104BF000E4E700BF2CE300084CE300080CE30008E6
:104C00006CE3000876E30008000000008F4900080C
:104C100072E300082DE9F047164699468A680B6949
:104C2000DDF820809342B8BF1346336091F84320EB
:104C300007460C460AB1013333602368990642BF28
:104C4000336802333360256815F0060506D104F198
:104C5000190AE36832689B1AAB4226DC94F84320B9
:104C6000131E226818BF012392062BD404F14302BD
:104C700049463846C04701301ED02368E56832688F
:104C800003F00603042B08BFAD1AA36822690CBF0A
:104C900025EAE57500259342C4BF9B1AED1800264E
:104CA0001A34B5421AD1002008E001235246494681
:104CB0003846C047013003D14FF0FF30BDE8F087E0
:104CC0000135C6E7E1185A1C302081F84300224420
:104CD00094F8451082F843100233C7E701232246B7
:104CE00049463846C0470130E6D00136D9E70000D2
:104CF0002DE9FF470C469146277E0C99782F804678
:104D00009A4604F1430207D8622F0AD8002F00F018
:104D1000D880582F00F0A38004F1420684F8427036
:104D20003AE0A7F16303152BF6D801A050F823F061
:104D3000894D00089D4D0008194D0008194D0008C7
:104D4000194D0008194D00089D4D0008194D000827
:104D5000194D0008194D0008194D0008A94E00080A
:104D6000CD4D00088B4E0008194D0008194D000864
:104D7000CB4E0008194D0008CD4D0008194D000814
:104D8000194D0008934E00080B681A1D1B680A6035
:104D900004F1420684F842300123A3E02568086844
:104DA0002E0600F104030AD505680B60002D03DA16
:104DB0002D236D4284F843305E480A2319E015F034
:104DC000400F05680B6018BF2DB2EFE70B68256830
:104DD000181D0860280601D51D6802E06906FBD58C
:104DE0001D8854486F2F0CBF08230A23002184F824
:104DF00043106668A660002EA2BF216821F004015E
:104E000021600DB9002E4DD01646B5FBF3F103FB22
:104E10001157C75D06F8017D2F46BB420D46F4D9F8
:104E2000082B0BD12368DF0708D5236961689942F5
:104E3000DEBF302306F8013C06F1FF36921B2261EB
:104E4000CDF800A04B4603AA21464046FFF7E2FEFC
:104E500001304CD14FF0FF3004B0BDE8F087354849
:104E600084F8457023680E681F0656F8045B0E60D0
:104E700014D5D90744BF43F0200323601DB923682C
:104E800023F0200323601023B0E7236843F02003BE
:104E900023607823284884F84530E3E75E0648BF5E
:104EA000ADB2E6E71646BBE70B68266860691D1DD4
:104EB0000D6035061B6801D5186002E07106FBD550
:104EC0001880002323611646BAE70B681A1D0A6092
:104ED0001E68626800213046FBF77AF908B1801B32
:104EE000606063682361002384F84330A8E7236986
:104EF000324649464046D0470130ABD023689B0735
:104F000013D4E068039B9842B8BF1846A4E7012376
:104F1000324649464046D04701309BD00135E368D0
:104F200003995B1AAB42F2DCEBE7002504F11906AA
:104F3000F5E700BF7DE300088EE3000838B5064DB5
:104F40000023044608462B60FBF78EFB431C02D16E
:104F50002B6803B1236038BD2892002010B50C46A1
:104F6000B1F90E1000F0F4FA0028ABBF636DA3890D
:104F70001B1823F48053ACBF6365A38110BD2DE9DA
:104F8000F0411F468B89DB0505460C46164605D5C4
:104F9000B1F90E100223002200F0C8F9A389B4F978
:104FA0000E1023F48053A38132463B462846BDE8C9
:104FB000F04100F069B810B50C46B1F90E1000F0E0
:104FC000B5F9431CA38915BF606523F4805343F4EE
:104FD0008053A38118BFA38110BDB1F90E1000F05A
:104FE000D3B80000F8B50E461446054618B18369DB
:104FF0000BB9FFF7BBFB214B9C422BD16C68A3691B
:10500000A360A3891A072FD523696BB3236920688E
:10501000C01A6369F6B28342374604DC214628464B
:1050200000F048F930BBA368013BA36023685A1C19
:1050300022601E7063690130834204D0A389DB07BC
:1050400006D50A2E04D12146284600F033F988B946
:105050003846F8BD0A4B9C4201D1AC68CFE7094BFA
:105060009C4208BFEC68CAE72146284600F01EF8BB
:105070000028CBD04FF0FF37EAE700BF2CE3000851
:105080004CE300080CE3000838B5074D0446084619
:10509000114600222A601A46FBF7D8FA431C02D1B7
:1050A0002B6803B1236038BD28920020324B70B5C5
:1050B0001D6806460C4625B1AB6913B92846FFF7B3
:1050C00055FB2E4B9C420FD16C68A389B4F90C2080
:1050D00019072CD4DD0611D40923336042F04003B4
:1050E000A3814FF0FF303EE0254B9C4201D1AC68DC
:1050F000EBE7244B9C4208BFEC68E6E7580712D563
:10510000616B41B104F14403994202D0304600F092
:10511000A9F900236363A38923F02403A381002357
:10512000636023692360A38943F00803A381236993
:105130004BB9A38903F42073B3F5007F03D0214654
:10514000304600F029F9A089B4F90C2010F00103D1
:105150000AD00023A36063695B42A361236943B95A
:1051600010F08000BAD170BD810758BF6369A36099
:10517000F4E70020F7E700BF140000202CE300084C
:105180004CE300080CE3000838B5064D0023044644
:1051900008462B60FBF78EFA431C02D12B6803B143
:1051A000236038BD289200208A892DE9F041054608
:1051B00010070C4658D44B68002B05DC0B6C002BF9
:1051C00002DC0020BDE8F081E66A002EF9D0002361
:1051D00012F480522F682B6032D0606DA3895A0779
:1051E00005D56368C01A636B0BB1236CC01A00232A
:1051F0000246E66A216A2846B047431CA38906D1C5
:1052000029681D292CD82A4ACA40D60728D5002249
:105210006260D9042269226004D5421C01D12B6846
:1052200003B96065616B2F600029CAD004F14403A3
:10523000994202D0284600F015F900206063C1E7CA
:10524000216A01232846B047411CC7D12B68002B97
:10525000C4D01D2B01D0162B01D12F60B1E7A3893B
:1052600043F04003A381ADE70F69002FA9D0930756
:105270000E6808BF4B690F6018BF0023A6EB070834
:105280008B60B8F1000F9CDD216AA66A43463A465E
:105290002846B047002806DCA38943F04003A381D9
:1052A0004FF0FF308EE70744A8EB0008E9E700BFA6
:1052B0000100402038B50B6905460C4613B900259E
:1052C000284638BD18B183690BB9FFF74FFA144B64
:1052D0009C421BD16C68B4F90C30002BEFD0626E8D
:1052E000D00704D4990502D4A06DFFF7DDFA284653
:1052F0002146FFF759FF636EDA070546E0D4A3891C
:105300009B05DDD4A06DFFF7D0FAD9E7054B9C4291
:1053100001D1AC68DFE7044B9C4208BFEC68DAE7D8
:105320002CE300084CE300080CE3000838B5074DF7
:1053300004460846114600222A601A46FBF7C4F9C3
:10534000431C02D12B6803B1236038BD2892002092
:1053500070B50E46B1F90E10002996B014461D46E0
:1053600007DA00232B60B3891A0610D44FF4806348
:105370000EE06A4600F0FEF80028F2DB019A02F423
:105380007042A2F500535A425A412A60EEE7402388
:105390000020236016B070BD8B8973B59D0706464B
:1053A0000C4607D504F147032360236101236361A1
:1053B00002B070BD01AB6A46FFF7CAFF009905460F
:1053C0003046FFF773FA48B9B4F90C309A05EFD4B8
:1053D00023F0030343F00203A381E3E70D4BB36221
:1053E000A389206043F08003A381009B6361019B3C
:1053F00020615BB1B4F90E10304600F0CDF828B151
:10540000A38923F0030343F00103A381A08905438B
:10541000A581CDE705470008884210B501EB0204DD
:1054200002D98442234607D8431EA14208D011F86E
:10543000012B03F8012FF8E7024401468A4200D10C
:1054400010BD13F8014D02F8014DF7E70148FFF7D1
:105450002BBA00BF209200200148FFF726BA00BFF8
:105460002092002037B5002948D051F8043C019023
:10547000002BA1F10404B8BFE418FFF7E7FF204AAE
:1054800001981368154633B96360146003B0BDE832
:105490003040FFF7E1BFA3420BD921686218934265
:1054A00004BF1A685B68636004BF521822602C60F6
:1054B000ECE71A465B680BB1A342FAD9116855189C
:1054C000A5420BD1246821445418A3421160DDD1B8
:1054D0001C685B68536021441160D7E702D90C2334
:1054E0000360D3E7256861198B4204BF19685B68C4
:1054F000636004BF491921605460C7E703B030BD41
:10550000388E0020F8B5074614460E4621B9BDE88E
:10551000F8401146FFF7CAB922B9FFF7A3FF2546A5
:105520002846F8BD00F048F8A0420FD22146384680
:10553000FFF7BCF905460028F2D031462246FFF7B6
:105540008FF831463846FFF78DFFE9E73546E7E744
:1055500038B5074D04460846114600222A601A460F
:10556000FBF764F8431C02D12B6803B1236038BDFC
:105570002892002038B5074D0023044608461146FE
:105580002B60FBF79AF8431C02D12B6803B1236010
:1055900038BD00BF2892002038B5064D00230446D0
:1055A00008462B60FBF78EF8431C02D12B6803B131
:1055B000236038BD2892002051F8043C181F002BAE
:1055C000BCBF0B58C0187047014B1868704700BF2C
:1055D000A0E300082DE9F04F91B01A9FD7B307F16F
:1055E000500904464846884616461D4600F032FAE1
:1055F00080B37CB3D4F800A0BAF1000F04D06425C6
:10560000284611B0BDE8F08F404605F025F830B3CC
:1056100006B3FDB1CE46BEE80F000DF12C0CACE890
:105620000F00DEF80030CCF8003000F04FFA10AB7D
:10563000844613E90700CDF820C08DE80700DDE9B6
:105640000B23514608A800F0BBFA50B10A2813D02A
:105650000125D5E70B25284611B0BDE8F08FC825F8
:10566000CEE708A804F022FC824638B108A800F072
:10567000E7FABAF10A0FEBD10A25C1E74046CDF8A7
:1056800024A004F0F3FF8246404604F0F7FF86466C
:10569000B9E80F000DF1240BEC46CDF814B0ACE8DE
:1056A0000F00D9F80030CCF8003028465146724639
:1056B00008AB04F095FA054608A800F0C1FA20B935
:1056C0005DB1672D02D0692D5FD0012509980028B2
:1056D00096D07B6D396E984792E7404604F0D6FF2E
:1056E0000028F2D00998FAF799FF3B6D396E013026
:1056F00098470999079181460846FAF78FFF07995D
:10570000421C4846FEF7ACFF2A4648460AA900F06C
:105710000FFB002837D10A9B002B38D13B6D396E27
:10572000C02098472060A0B3404604F0B7FF07F1BF
:105730006403009331463B464A46256800F0F8FB77
:105740002168C5F8BC00D1F8BC0088B3683100F00E
:10575000CDFC23680546F0B997F8482083F8B020BF
:10576000184668223946FEF77BFFD8F80020C0F8BB
:10577000B820099810B17B6D396E98477B6D396EF2
:10578000484698473CE70125F3E767259EE76725EC
:10579000EFE70A25EDE7002BF5D0D3F8BC303BB19D
:1057A000404604F07BFF2368D3F8BC1000F0A0FC57
:1057B0007B6D396E20689847002323600125D8E768
:1057C000F0B50E4F0E4987B0064650223846FEF718
:1057D00047FF6C46684600F02FF90FCC07F15005E3
:1057E0000FC523682B6000F0A1FA3946786668225D
:1057F0003046FEF735FF304607B0F0BD408E002042
:10580000A8E30008F8B1036870B50446B3B11646C2
:10581000D3F8BC2092B1D3F8B8000D4604F062F979
:1058200060B12368D3F8BC0040B155B13246294677
:1058300000F01EFB003818BF012070BD4FF49670B9
:1058400070BD0B2070BD4FF4967070472DE9F0418C
:1058500088B0002844D01C46002B41D00F4690460B
:10586000064604F03FFC0346D4E903018DE803003B
:10587000079307A894E80E0004F036FC054648BBE1
:1058800004F030FC3146306007A804F0A3FC054664
:10589000D0B902AD284604F015F995E80F0006F1DD
:1058A000080585E80F002B4641463846324604F08D
:1058B00003FB054640B9B461224606F11C010320F2
:1058C00005F038F8054608B100F0E8F807A804F03C
:1058D0005DFC08B100F0E2F8284608B0BDE8F081B0
:1058E0000B25284608B0BDE8F08100BFC0B32DE904
:1058F000F0430D468FB031B3164622B31F4613B3A3
:105900000DF110080446404604F02CFD98E8030011
:105910000DF11C0984E80300484604F0C5FE40462A
:1059200004F020FD98E8030007F10803CDF800908B
:10593000324684E803002946204604F01DFD30B9B4
:105940000FB0BDE8F0830B200FB0BDE8F0830390EB
:1059500000F0A4F800F0A2F803980FB0BDE8F083BF
:105960000B20704768B32DE9F0410D469EB021B37E
:10597000164612B31F4603B30446FFF725FE0DF18A
:10598000100820604046FFF71BFF0F495022404699
:10599000FEF766FECDF800803B463246294620469B
:1059A000FFF718FE10B91EB0BDE8F081039000F0BB
:1059B00075F803981EB0BDE8F0810B201EB0BDE85D
:1059C000F0810B20704700BFF8E3000808F0BCB876
:1059D00008F080B908F00EB908F004B970B4054DAC
:1059E00006460FCD34460FC42B682360304670BC8A
:1059F000704700BF48E40008A0B1016899B130B415
:105A0000446894B1C5685DB183688BB1094AC2E945
:105A10000014C2E9023500201061012030BC70473B
:105A20002846FBE7704708467047204630BC704761
:105A30001846F3E77800002070B4054D06460FCDF8
:105A400034460FC42B682360304670BC704700BFDB
:105A50007800002058B1036843B1436833B1C3688C
:105A600023B18068003818BF01207047184670477E
:105A7000064B1B783BB1064B1A780AB901221A7003
:105A8000044B18787047044B18787047A88E002094
:105A9000A98E0020309200205CE40008D0B4074AB0
:105AA0000748084C0849002300260027138003708C
:105AB000C2E9026723700B70D0BC70473892002097
:105AC00030920020A98E0020A88E0020014B0020DB
:105AD00018607047AC8E0020002861D02DE9F0439B
